{
  "contractName": "Phoenix",
  "abi": [
    {
      "inputs": [],
      "stateMutability": "nonpayable",
      "type": "constructor"
    },
    {
      "anonymous": false,
      "inputs": [
        {
          "indexed": true,
          "internalType": "address",
          "name": "wallet",
          "type": "address"
        },
        {
          "indexed": true,
          "internalType": "uint256",
          "name": "storeId",
          "type": "uint256"
        },
        {
          "indexed": false,
          "internalType": "string",
          "name": "storeName",
          "type": "string"
        },
        {
          "indexed": false,
          "internalType": "string",
          "name": "storeDescription",
          "type": "string"
        }
      ],
      "name": "AddStore",
      "type": "event"
    },
    {
      "anonymous": false,
      "inputs": [
        {
          "indexed": true,
          "internalType": "address",
          "name": "previousOwner",
          "type": "address"
        },
        {
          "indexed": true,
          "internalType": "address",
          "name": "newOwner",
          "type": "address"
        }
      ],
      "name": "OwnershipTransferred",
      "type": "event"
    },
    {
      "anonymous": false,
      "inputs": [
        {
          "indexed": true,
          "internalType": "address",
          "name": "sender",
          "type": "address"
        },
        {
          "indexed": true,
          "internalType": "address",
          "name": "receiver",
          "type": "address"
        },
        {
          "indexed": false,
          "internalType": "uint256",
          "name": "amount",
          "type": "uint256"
        },
        {
          "indexed": true,
          "internalType": "uint256",
          "name": "storeId",
          "type": "uint256"
        },
        {
          "indexed": false,
          "internalType": "string",
          "name": "productId",
          "type": "string"
        }
      ],
      "name": "Payment",
      "type": "event"
    },
    {
      "inputs": [],
      "name": "owner",
      "outputs": [
        {
          "internalType": "address",
          "name": "",
          "type": "address"
        }
      ],
      "stateMutability": "view",
      "type": "function"
    },
    {
      "inputs": [],
      "name": "renounceOwnership",
      "outputs": [],
      "stateMutability": "nonpayable",
      "type": "function"
    },
    {
      "inputs": [
        {
          "internalType": "uint256",
          "name": "",
          "type": "uint256"
        }
      ],
      "name": "storesId",
      "outputs": [
        {
          "internalType": "address",
          "name": "",
          "type": "address"
        }
      ],
      "stateMutability": "view",
      "type": "function"
    },
    {
      "inputs": [
        {
          "internalType": "uint256",
          "name": "",
          "type": "uint256"
        }
      ],
      "name": "storesInfo",
      "outputs": [
        {
          "internalType": "string",
          "name": "storeName",
          "type": "string"
        },
        {
          "internalType": "string",
          "name": "storeDescription",
          "type": "string"
        }
      ],
      "stateMutability": "view",
      "type": "function"
    },
    {
      "inputs": [
        {
          "internalType": "address",
          "name": "newOwner",
          "type": "address"
        }
      ],
      "name": "transferOwnership",
      "outputs": [],
      "stateMutability": "nonpayable",
      "type": "function"
    },
    {
      "inputs": [
        {
          "internalType": "address",
          "name": "wallet",
          "type": "address"
        },
        {
          "internalType": "uint256",
          "name": "storeId",
          "type": "uint256"
        },
        {
          "internalType": "string",
          "name": "storeName",
          "type": "string"
        },
        {
          "internalType": "string",
          "name": "storeDescription",
          "type": "string"
        }
      ],
      "name": "addStore",
      "outputs": [],
      "stateMutability": "nonpayable",
      "type": "function"
    },
    {
      "inputs": [
        {
          "internalType": "address",
          "name": "asset",
          "type": "address"
        },
        {
          "internalType": "uint256",
          "name": "amount",
          "type": "uint256"
        },
        {
          "internalType": "uint256",
          "name": "storeId",
          "type": "uint256"
        },
        {
          "internalType": "string",
          "name": "productId",
          "type": "string"
        }
      ],
      "name": "pay",
      "outputs": [],
      "stateMutability": "nonpayable",
      "type": "function"
    }
  ],
  "bytecode": "0x608060405234801561001057600080fd5b5061002d61002261003260201b60201c565b61003a60201b60201c565b6100fe565b600033905090565b60008060009054906101000a900473ffffffffffffffffffffffffffffffffffffffff169050816000806101000a81548173ffffffffffffffffffffffffffffffffffffffff021916908373ffffffffffffffffffffffffffffffffffffffff1602179055508173ffffffffffffffffffffffffffffffffffffffff168173ffffffffffffffffffffffffffffffffffffffff167f8be0079c531659141344cd1fd0a4f28419497f9722a3daafe3b4186f6b6457e060405160405180910390a35050565b6112808061010d6000396000f3fe608060405234801561001057600080fd5b506004361061007d5760003560e01c8063715018a61161005b578063715018a6146100ff5780638da5cb5b146101095780639d5eb80414610127578063f2fde38b146101435761007d565b80631d4d19fa146100825780631fa6127e146100b25780635b21b92e146100e3575b600080fd5b61009c60048036038101906100979190610c72565b61015f565b6040516100a99190610ee4565b60405180910390f35b6100cc60048036038101906100c79190610c72565b610192565b6040516100da929190610f36565b60405180910390f35b6100fd60048036038101906100f89190610bce565b6102c6565b005b6101076104b1565b005b610111610539565b60405161011e9190610ee4565b60405180910390f35b610141600480360381019061013c9190610b3b565b610562565b005b61015d60048036038101906101589190610b12565b610804565b005b60016020528060005260406000206000915054906101000a900473ffffffffffffffffffffffffffffffffffffffff1681565b60026020528060005260406000206000915090508060000180546101b590611164565b80601f01602080910402602001604051908101604052809291908181526020018280546101e190611164565b801561022e5780601f106102035761010080835404028352916020019161022e565b820191906000526020600020905b81548152906001019060200180831161021157829003601f168201915b50505050509080600101805461024390611164565b80601f016020809104026020016040519081016040528092919081815260200182805461026f90611164565b80156102bc5780601f10610291576101008083540402835291602001916102bc565b820191906000526020600020905b81548152906001019060200180831161029f57829003601f168201915b5050505050905082565b60006001600084815260200190815260200160002060009054906101000a900473ffffffffffffffffffffffffffffffffffffffff169050600073ffffffffffffffffffffffffffffffffffffffff168173ffffffffffffffffffffffffffffffffffffffff16141561036e576040517f08c379a000000000000000000000000000000000000000000000000000000000815260040161036590610f8d565b60405180910390fd5b60008590508073ffffffffffffffffffffffffffffffffffffffff166323b872dd3384886040518463ffffffff1660e01b81526004016103b093929190610eff565b602060405180830381600087803b1580156103ca57600080fd5b505af11580156103de573d6000803e3d6000fd5b505050506040513d601f19601f820116820180604052508101906104029190610c49565b610441576040517f08c379a00000000000000000000000000000000000000000000000000000000081526004016104389061100d565b60405180910390fd5b838273ffffffffffffffffffffffffffffffffffffffff163373ffffffffffffffffffffffffffffffffffffffff167f2231eff6b3043481d1ef0f108caa6f20c6a0c8a4029af7be48297a02efb5ac4c88876040516104a192919061102d565b60405180910390a4505050505050565b6104b96108fc565b73ffffffffffffffffffffffffffffffffffffffff166104d7610539565b73ffffffffffffffffffffffffffffffffffffffff161461052d576040517f08c379a000000000000000000000000000000000000000000000000000000000815260040161052490610fcd565b60405180910390fd5b6105376000610904565b565b60008060009054906101000a900473ffffffffffffffffffffffffffffffffffffffff16905090565b61056a6108fc565b73ffffffffffffffffffffffffffffffffffffffff16610588610539565b73ffffffffffffffffffffffffffffffffffffffff16146105de576040517f08c379a00000000000000000000000000000000000000000000000000000000081526004016105d590610fcd565b60405180910390fd5b600073ffffffffffffffffffffffffffffffffffffffff168473ffffffffffffffffffffffffffffffffffffffff16141561064e576040517f08c379a000000000000000000000000000000000000000000000000000000000815260040161064590610fad565b60405180910390fd5b600073ffffffffffffffffffffffffffffffffffffffff166001600085815260200190815260200160002060009054906101000a900473ffffffffffffffffffffffffffffffffffffffff1673ffffffffffffffffffffffffffffffffffffffff16146106f0576040517f08c379a00000000000000000000000000000000000000000000000000000000081526004016106e790610fed565b60405180910390fd5b60006040518060400160405280848152602001838152509050846001600086815260200190815260200160002060006101000a81548173ffffffffffffffffffffffffffffffffffffffff021916908373ffffffffffffffffffffffffffffffffffffffff1602179055508060026000868152602001908152602001600020600082015181600001908051906020019061078b9291906109c8565b5060208201518160010190805190602001906107a89291906109c8565b50905050838573ffffffffffffffffffffffffffffffffffffffff167f9a7ab4102f7cb38e57e8d6dffd295f32d7512583e931856570bccf152a0a813485856040516107f5929190610f36565b60405180910390a35050505050565b61080c6108fc565b73ffffffffffffffffffffffffffffffffffffffff1661082a610539565b73ffffffffffffffffffffffffffffffffffffffff1614610880576040517f08c379a000000000000000000000000000000000000000000000000000000000815260040161087790610fcd565b60405180910390fd5b600073ffffffffffffffffffffffffffffffffffffffff168173ffffffffffffffffffffffffffffffffffffffff1614156108f0576040517f08c379a00000000000000000000000000000000000000000000000000000000081526004016108e790610f6d565b60405180910390fd5b6108f981610904565b50565b600033905090565b60008060009054906101000a900473ffffffffffffffffffffffffffffffffffffffff169050816000806101000a81548173ffffffffffffffffffffffffffffffffffffffff021916908373ffffffffffffffffffffffffffffffffffffffff1602179055508173ffffffffffffffffffffffffffffffffffffffff168173ffffffffffffffffffffffffffffffffffffffff167f8be0079c531659141344cd1fd0a4f28419497f9722a3daafe3b4186f6b6457e060405160405180910390a35050565b8280546109d490611164565b90600052602060002090601f0160209004810192826109f65760008555610a3d565b82601f10610a0f57805160ff1916838001178555610a3d565b82800160010185558215610a3d579182015b82811115610a3c578251825591602001919060010190610a21565b5b509050610a4a9190610a4e565b5090565b5b80821115610a67576000816000905550600101610a4f565b5090565b6000610a7e610a798461108e565b61105d565b905082815260208101848484011115610a9657600080fd5b610aa1848285611122565b509392505050565b600081359050610ab881611205565b92915050565b600081519050610acd8161121c565b92915050565b600082601f830112610ae457600080fd5b8135610af4848260208601610a6b565b91505092915050565b600081359050610b0c81611233565b92915050565b600060208284031215610b2457600080fd5b6000610b3284828501610aa9565b91505092915050565b60008060008060808587031215610b5157600080fd5b6000610b5f87828801610aa9565b9450506020610b7087828801610afd565b935050604085013567ffffffffffffffff811115610b8d57600080fd5b610b9987828801610ad3565b925050606085013567ffffffffffffffff811115610bb657600080fd5b610bc287828801610ad3565b91505092959194509250565b60008060008060808587031215610be457600080fd5b6000610bf287828801610aa9565b9450506020610c0387828801610afd565b9350506040610c1487828801610afd565b925050606085013567ffffffffffffffff811115610c3157600080fd5b610c3d87828801610ad3565b91505092959194509250565b600060208284031215610c5b57600080fd5b6000610c6984828501610abe565b91505092915050565b600060208284031215610c8457600080fd5b6000610c9284828501610afd565b91505092915050565b610ca4816110da565b82525050565b6000610cb5826110be565b610cbf81856110c9565b9350610ccf818560208601611131565b610cd8816111f4565b840191505092915050565b6000610cf06026836110c9565b91507f4f776e61626c653a206e6577206f776e657220697320746865207a65726f206160008301527f64647265737300000000000000000000000000000000000000000000000000006020830152604082019050919050565b6000610d566022836110c9565b91507f50686f656e69783a207468652073746f7265206964206973206e6f7420666f7560008301527f6e640000000000000000000000000000000000000000000000000000000000006020830152604082019050919050565b6000610dbc601f836110c9565b91507f5068656f6e69783a2077616c6c6574206973206e756c6c2061646472657373006000830152602082019050919050565b6000610dfc6020836110c9565b91507f4f776e61626c653a2063616c6c6572206973206e6f7420746865206f776e65726000830152602082019050919050565b6000610e3c6023836110c9565b91507f50686f656e69783a2073746f726520696420697320616c726561647920696e2060008301527f75736500000000000000000000000000000000000000000000000000000000006020830152604082019050919050565b6000610ea26018836110c9565b91507f50686f656e69783a205472616e73666572204661696c656400000000000000006000830152602082019050919050565b610ede81611118565b82525050565b6000602082019050610ef96000830184610c9b565b92915050565b6000606082019050610f146000830186610c9b565b610f216020830185610c9b565b610f2e6040830184610ed5565b949350505050565b60006040820190508181036000830152610f508185610caa565b90508181036020830152610f648184610caa565b90509392505050565b60006020820190508181036000830152610f8681610ce3565b9050919050565b60006020820190508181036000830152610fa681610d49565b9050919050565b60006020820190508181036000830152610fc681610daf565b9050919050565b60006020820190508181036000830152610fe681610def565b9050919050565b6000602082019050818103600083015261100681610e2f565b9050919050565b6000602082019050818103600083015261102681610e95565b9050919050565b60006040820190506110426000830185610ed5565b81810360208301526110548184610caa565b90509392505050565b6000604051905081810181811067ffffffffffffffff82111715611084576110836111c5565b5b8060405250919050565b600067ffffffffffffffff8211156110a9576110a86111c5565b5b601f19601f8301169050602081019050919050565b600081519050919050565b600082825260208201905092915050565b60006110e5826110f8565b9050919050565b60008115159050919050565b600073ffffffffffffffffffffffffffffffffffffffff82169050919050565b6000819050919050565b82818337600083830152505050565b60005b8381101561114f578082015181840152602081019050611134565b8381111561115e576000848401525b50505050565b6000600282049050600182168061117c57607f821691505b602082108114156111905761118f611196565b5b50919050565b7f4e487b7100000000000000000000000000000000000000000000000000000000600052602260045260246000fd5b7f4e487b7100000000000000000000000000000000000000000000000000000000600052604160045260246000fd5b6000601f19601f8301169050919050565b61120e816110da565b811461121957600080fd5b50565b611225816110ec565b811461123057600080fd5b50565b61123c81611118565b811461124757600080fd5b5056fea26469706673582212202bd3b0da59f0408979c6cce291997d998a4051831507358625e3855d649610cd64736f6c63430008000033",
  "immutableReferences": {},
  "source": "pragma solidity ^0.8.0;\n\nimport \"@openzeppelin/contracts/token/ERC20/IERC20.sol\";\nimport \"@openzeppelin/contracts/access/Ownable.sol\";\n\ncontract Phoenix is Ownable{\n\n    event Payment(address indexed sender, address indexed receiver, uint256 amount, uint256 indexed storeId, string productId);\n    event AddStore(address indexed wallet, uint256 indexed storeId, string storeName, string storeDescription);\n\n    constructor(){}\n\n    struct StoreInfo{\n        string storeName;\n        string storeDescription;\n    }\n\n    mapping(uint256=>address) public storesId;\n    mapping(uint256=>StoreInfo) public storesInfo;\n\n    function addStore\n    (\n        address wallet, \n        uint256 storeId, \n        string memory storeName, \n        string memory storeDescription\n    ) external onlyOwner\n    {\n        require(wallet != address(0), \"Pheonix: wallet is null address\");\n        require(storesId[storeId] == address(0), \"Phoenix: store id is already in use\");\n\n        StoreInfo memory infos = StoreInfo(storeName, storeDescription);\n        storesId[storeId] = wallet;\n        storesInfo[storeId] = infos;\n        emit AddStore(wallet, storeId, storeName, storeDescription);\n    }\n\n    function pay(address asset, uint256 amount, uint256 storeId, string memory productId) external {\n        address receiver = storesId[storeId];\n        require(receiver != address(0), \"Phoenix: the store id is not found\");\n        IERC20 token = IERC20(asset);\n        require(token.transferFrom(msg.sender, receiver, amount), \"Phoenix: Transfer Failed\");\n        emit Payment(msg.sender, receiver, amount, storeId, productId);\n    }\n}",
  "sourcePath": "/Users/andrei/upwork/phoenix/contracts/Phoenix.sol",
  "compiler": {
    "name": "solc",
    "version": "0.8.0+commit.c7dfd78e.Emscripten.clang"
  },
  "schemaVersion": "3.4.4",
  "updatedAt": "2021-12-29T14:47:20.452Z",
  "devdoc": {
    "kind": "dev",
    "methods": {
      "owner()": {
        "details": "Returns the address of the current owner."
      },
      "renounceOwnership()": {
        "details": "Leaves the contract without owner. It will not be possible to call `onlyOwner` functions anymore. Can only be called by the current owner. NOTE: Renouncing ownership will leave the contract without an owner, thereby removing any functionality that is only available to the owner."
      },
      "transferOwnership(address)": {
        "details": "Transfers ownership of the contract to a new account (`newOwner`). Can only be called by the current owner."
      }
    },
    "version": 1
  },
  "userdoc": {
    "kind": "user",
    "methods": {},
    "version": 1
  }
}